:020000040000fa
:080000000001040000000000f3
:020000040000fa
:10020000af8720000e9f20000e0188000000000034
:100210000c00070080bd2000010020001100070035
:10022000000020000000e000020032000000020098
:10023000000000007c050200000000000040da0021
:100240000000fe004440a900000020000000e00083
:100250000300320000002000a00188004440a800f4
:100260000000060091018800800078000000eb008b
:1002700015003700e280400032a0b4009101ba00be
:10028000e280400032a0b4009102ba00e280400057
:1002900032a0b4000002eb00472bde00f507b200ed
:1002a000602ce10004003a000059eb008301e900f2
:1002b000fdff3e00040037006128e100010032002c
:1002c0000082eb00040007001101ba000200e00008
:1002d000e8ff3a00000006003159ba008301e90046
:1002e0000c0032002159ba008301e90008003200f5
:1002f0000400e00003003a00e280400032a0b400b5
:10030000f5ff370011d9ba008301e900faff3a007e
:100310008100e800e180400032a0b4000000060047
:100320000040da000000fe00889fbe008a9fbe00e9
:10033000010578000100e0000400350008003c00e1
:100340000000e000200032000500370060001000cf
:10035000e080180002003b0001f02c001a0037007a
:100360000004be006011b8006b0920000982cf00b4
:10037000020039000882cf000441b00069425200f7
:100380000e00320008003b008281710061016400b0
:100390008904d1000884d3008b05e8000442e800fa
:1003a000f9ff3a00050037000804440089844c0036
:1003b0008b05e9000442e900fbff3a001901070040
:1003c0000af0a70001f0a0004f05be004f04be00d8
:1003d00000000600889fbe008a9fbe008c1f780028
:1003e000360107003d01330003866c006450e100d4
:1003f0002e0032006420e100330032006150e10041
:100400002f0032006120e100310032008585550067
:10041000eb07b000090020000804200005003700a9
:100420000804440089844c000a003100060343009c
:1004300087834b000001530081815b00f8ff33008c
:100440000203be000800a0000804440089844c0098
:10045000f6ff3900c639dd00830173000100320068
:10046000130020008904d1000884d3000998a30058
:10047000050032000800a7000300a0008904d10095
:100480000884d3008b05e8008904d1000884d300d8
:100490000001eb000281d200e200070001f0a100a0
:1004a0000cf0a70001f0a000150137006420e10066
:1004b000170132000801be000200be00f7ff37003e
:1004c0006120e100120132006000b800f3ff370044
:1004d0000000200001f82700f0ff37001400200082
:1004e0000e013700889fbe008a9fbe008c1f7800d7
:1004f000f2000700f900330003866c006450e1004d
:10050000240032006420e100270032006150e10045
:10051000220032006120e100210032008b85420080
:10052000eb07b1000134b800003ab80008044200fb
:1005300089844a00013ab8000030b8008880400041
:1005400009014a0004003300000040008180480097
:10055000020149008b05e900c909dd008301700033
:100560000100320013002000c814de004814dd0032
:100570004709de001200b200c808de0008847000df
:10058000a800070001f0a1000cf0a70001f0a000f6
:10059000db0037006120e100dd0032000801be0011
:1005a0000200be00f7ff37006150e100fcff3a0097
:1005b000d700370003f0a200889fbe008a9fbe00cc
:1005c0008c1f7800bd000700c40033006450e100b8
:1005d0004f0032006420e1005200320003826c00c0
:1005e00007003b000905d0000306d000820f54002d
:1005f0000c065d000200390002003200890178001b
:10060000030678008582550004003d000003fd00cc
:100610008103fd008502ea008b854200840f720091
:1006200002003b0060001000e08018006011b8007c
:100630000005eb007a28e1000a0039000600780086
:10064000c75ddd00f707b200878075002d00370019
:10065000828171000a017800610560008180d1000b
:100660000080d3008502e900f9ff3b00060440004a
:100670008784480002003b0060041400e0841c00f2
:100680000988a300070032008a817100828171000d
:10069000610164008904d1000884d3008b05e8005f
:1006a000170037000978a30013003a000b00e000a0
:1006b000130034008b05e9000804440089844c00d1
:1006c0000a4474000978a3000d003a000b00e00012
:1006d000070034008b05e9000804440089844c00bd
:1006e00001003a000b0020000978a300f7ff320058
:1006f0000001eb0002003700828171000a017800de
:10070000480007000cf0a70001f0a0007c003700b3
:100710006420e10002003a00838f6c007c0033000b
:100720000801be000200be0075003700f4ff2f0074
:100730007a0037000001be00930007000470a70094
:1007400003f0a1006509b100160032000d0035006c
:100750006828e10006003500f0ff2f00f1ff2700b8
:100760000300e00013003b0001002800000005002a
:1007700000004000818048008502e900fcff3a004b
:1007800008003700f88f420002003c008000eb00b8
:10079000000005008100d1000080d3008502e80040
:1007a000fcff3a000300e00002003b006000100084
:1007b000e0801800000006000001be007200070083
:1007c0000470a70003f0a10003f8a30013003a008f
:1007d0006509b10010003200090035006928e10008
:1007e0000200350001002800000005000000400064
:1007f000818048008502e900fcff3a000000060005
:10080000f88f4200050035008100d1000080d30040
:100810008502e800fcff3a00000006008000eb00c3
:100820000000050081002000618055000b003d00a4
:100830000b00200061fe2f000100e1001d003400cc
:1008400082817100610164008904d1000884d300b1
:100850000000e800faff3a00710020006100640027
:1008600003007000020060000900320061044400cf
:10087000e0844c000988a500050032008b05e800e3
:100880006808e10002003a008904d1000884d3001e
:10089000f20f20000258e10005003d00c75ddd00b9
:1008a000f907b20089807500080078000000060092
:1008b0000bf827008b007800000005000004be0044
:1008c000310007000003be000405be000200be00a8
:1008d0002d000700844f7500000006000200be00d6
:1008e0006450e100050036006420e100020036009b
:1008f0000968a30001003a000800be000160a000e2
:100900004f0678004f05be004f04be0000000600f1
:10091000f0ff2f00f1ff2700f9ff3700889fbe008e
:100920008a9fbe00841f7800e4ff07004f00780014
:1009300011003300f0ff2f00838f6c0006003b0096
:10094000040565000a00a7000800370009f0a600aa
:100950001000200008003700820f5400838f5c00d5
:10096000030039001000200001003e0000002000bc
:1009700009f0a7000000ea004f05be004f04be00ca
:100980000000e00000000600c70ade00f107b20028
:10099000f50fb20008003200e1cf42000200320041
:1009a0000170a00024000500810f700001003200da
:1009b0000408050044000500810f700002003a00a1
:1009c000140005008502e9000000400081c04800d5
:1009d000fcff3b000170a00024000500a21088006d
:1009e0006010880071108800000006008520a900b2
:1009f0008540a900e7416000c419dd00810920009d
:100a000091407800f2c8b30082c0600083c07000db
:100a10008000fd0098e0b7008000fd0080017800b4
:100a20000307b200c419de0091092000914078004c
:100a300082cfb30082c0600083c070008000fd00e0
:100a400099e0b7008000fd00680160004311de00fe
:100a500002414100d1082000914078000114a1001a
:100a600082c070008000fd008de0b7008000fd00b6
:100a70000008b2004700de004200dd00d10820007f
:100a8000914078000124a10080c07000010078002e
:100a90008de0b700000006000cc2bf006640600099
:100aa000e64f500002003a0090108000000006005f
:100ab00090108000f00fb200000006000ec2bf00d0
:100ac000610060000000060061416100a31c20007d
:100ad000934178000304a10082c171008001fd00f0
:100ae000cae1b7008001fd0000004000421d200067
:080af00001307900000006004e
:020000040000fa
:0200000401f009
:04000000f6bf000047
:020000040000fa
:1000080090010000900100009001000090010000a4
:100018009001000090010000900100009001000094
:100028009001000090010000900100009001000084
:100038009001000090010000900100009001000074
:100048009001000086060000900100009001000069
:100058009001000090010000900100009001000054
:100068009001000090010000900100009001000044
:100078009001000090010000900100009001000034
:100088009001000090010000900100009001000024
:100098009001000090010000900100009001000014
:1000a8009001000090010000900100009001000004
:1000b80090010000900100009001000090010000f4
:1000c80090010000900100009001000090010000e4
:1000d80090010000900100009001000090010000d4
:1000e80090010000900100009001000090010000c4
:0800f8009001000090010000de
:020000040000fa
:1001080090010000900100009001000090010000a3
:100118009001000090010000900100009001000093
:100128009001000090010000900100009001000083
:100138009001000090010000900100009001000073
:100148009001000086060000900100009001000068
:100158009001000090010000900100009001000053
:100168009001000090010000900100009001000043
:100178009001000090010000900100009001000033
:100188009001000090010000900100009001000023
:100198009001000090010000900100009001000013
:1001a8009001000090010000900100009001000003
:1001b80090010000900100009001000090010000f3
:1001c80090010000900100009001000090010000e3
:1001d80090010000900100009001000090010000d3
:1001e80090010000900100009001000090010000c3
:0801f8009001000090010000dd
:020000040000fa
:100af8000000fa00889fbe001e0007006f00070074
:100b0800b302070000c0eb006ee8b700a0cbb3004b
:100b18006fe8b700f086200080007800e0862000ab
:100b280067010700804388000000eb0080438800cd
:100b380000003700d0428000e14280000004be007f
:100b4800b0438000cf80de00f5fd07000801be003d
:100b580088020700104380000000e000f5ff320023
:100b6800b10207000000eb001043880053000700a3
:100b7800f0ff37000000fa000080eb004015880005
:100b8800d222a900c6a2a900c682a900c662a900ed
:100b9800c642a900c622a900cdc2a900cda2a900bb
:100ba800d8a2a900d882a9001100200010002000b6
:100bb8001f00070011002000200020001c00070073
:100bc800d202a900d902a900d802a900d822a900f6
:100bd800d842a900d862a900d402a800db02a80064
:100be8000080fa00000006000600fa0020079800be
:100bf8006000b800008fbe006000b800008fbe0023
:100c08000400370010002000010020001e0f4000e3
:100c18005e974800f0a7210061002000be0f100079
:100c2800ae8f1800f7ff34000080fa0000000600bd
:100c38000600fa00000f7800110798001e007800df
:100c4800200798002e009000e10f500004003200a9
:100c58002e009000e20f50000c0032001500370003
:100c68001e00900061406000614060004501dd00a9
:100c7800812c200091407800f0cdb30000c06000c6
:100c880002407000c8e2b7000a0037001e0090005a
:100c9800614060006140600000414000412d20003b
:100ca80091407800d0cfb30000c0600002407000cf
:100cb800d4e2b7000080fa00000006000800fa003d
:100cc800301020003007980070be2f00000f780009
:100cd80000f02d001e00600020079800d0352f007e
:100ce800100798003e0190009e0090002e00900092
:100cf80038ff0700f0f72f003aff07000080fa00de
:100d0800000006003600f800809fbe00829fbe00eb
:100d1800849fbe00869fbe00881f78003400f800bc
:100d280000002000a00188000200fa008520a90028
:100d3800140037000840800055ff07008040780005
:100d48007080200000004400014878000800e80096
:100d5800004088007180200091407800a0cab3004c
:100d680080cf5000020032000000eb0000408800f5
:100d780000408000e80f5000020036000000eb0041
:100d8800004088004bff07000004e000e9ff3a003c
:100d98007180200091407800a0cab30080cf500035
:100da8002a003a0010002000f042880081802000cc
:100db80091407800a0ccb30080cf500023003a00c7
:100dc8001000200000438800e880200018447800c4
:100dd8008080200061c0b300c6000700804f540027
:100de8001a003a00100020002043880009c8bf00fc
:100df800f14f500003003a00100020001043880013
:100e080012003700a080200080007800b080200009
:100e1800ab000700b0438800c08020008000780045
:100e2800d0802000a6000700c0438800c04380008f
:100e3800cf80de003afd070002002000832c24004a
:100e480062fd0700d0428800e1428800c8c2bf00a6
:100e58000080fb004500de000004a2006140600045
:100e68006140600061406000614060004501dd0054
:100e7800812c200091407800f0cdb30000c06000c4
:100e880002407000c8e2b7000080fa003400f900a0
:100e98004f0478004f03be004f02be004f01be0052
:100ea8004f00be003600f900004006000000fa00be
:100eb8000000eb00601088000f42a9000f62a90033
:100ec8000ec2bf00f043b2000ee2b7000ea2a900a6
:100ed8000e22a90030102000a01088008520a9004b
:100ee8008400a900810920009140780000c7b30060
:100ef80000c0700098e0b7008c00a9008d20a80001
:100f08000de2a8000080fa00000006000800fa00c0
:100f18001007980021079800320798000000eb009e
:100f2800000f78003e009000e10f500018003a00d2
:100f38000000eb00000f78001100370011002000be
:100f4800100020003aff07001100200020002000b8
:100f580037ff07001000200023ff07008000eb0088
:100f68001000200032ff07008000eb002000200066
:100f78002fff0700100020001bff07001e0fe800ce
:100f88001e0090009e0f1000ecff35001100370086
:100f98000000eb00000f78000b0037001100200064
:100fa8002e00900022ff0700100020000eff07000f
:100fb8008000eb002e0090001dff070010002000ad
:100fc80009ff07001e0fe8001e0090009e0f10008a
:100fd800f2ff35000080fa00000006000400fa0065
:100fe800000f78001e007800100798001e0090007f
:100ff800e10f5000040032001e009000e20f500084
:10100800110032001f003700c8c2bf000080fb007b
:101018004500de000004a2006140600061406000fd
:1010280061406000614060004501dd00812c2000c6
:1010380091407800f0cdb30000c06000024070001d
:10104800c8e2b7000f003700d4c2bf000080fb0021
:101058000000d1000004a20061406000614060000f
:10106800614060006140600000414000412d200067
:1010780091407800d0cfb30000c0600002407000fb
:10108800d4e2b7000080fa00000006000400fa006d
:10109800000f7800110798001e00780010407800b3
:1010a8000080fb00c400dd001e00900010407800a6
:1010b8000080fb00008070000080fa00000006003d
:1010c8000600fa0010079800210798002e009000eb
:1010d80010407800004f78001e0090001040780003
:1010e800104798000e007800100078000080fa0081
:1010f800000006000800fa002007980061479800e1
:101108000040eb00304798002e009000000f780058
:101118000040eb0020479800090037001e007800c7
:10112800904078003e4090000140680030479800a9
:101138001e0fe8002e4090000040e800204798006d
:10114800ae4090006e40900080cf5000f3ff390011
:101158003e4090000080fb000080fa00000006007e
:101168002600fa00889fbe0020179800620f98009a
:10117800730f980004179800151798006011b800ad
:101188006e089000fe089000d2fc07000000e00006
:1011980001003200240037006011b8000e109000e2
:1011a8009e109000cbfc07000000e0000100320018
:1011b8000900370060222000400f980060222000bc
:1011c800500f98004e089000de0890002e119000f5
:1011d8000089be00e30037000200200023262c000f
:1011e8000e1090009e109000bcfc0700020020002a
:1011f800c314240075fc07002007980031079800e5
:1012080002002000232624000e1090009e1090005b
:10121800b2fc070002002000c31424006bfc070086
:10122800008fbe002500370002002000c3142400f0
:101238006e089000fe08900064fc07000004be00e1
:1012480002002000232624000e1090009e1090001b
:10125800a2fc070002002000c3142c005bfc07005e
:101268000001be000800be00d1fc0700200798005e
:101278003107980002002000c31424006e08900073
:10128800fe08900051fc07000004be000200200088
:10129800232624000e1090009e1090008ffc07005b
:1012a80002002000c314240048fc07000001be000f
:1012b8000800be00befc0700008fbe006011b80029
:1012c8006e089000fe08900016fd07000000e00080
:1012d80001003c001400370022bb2e0083222400aa
:1012e8002e009000be009000b1fc070062f52300bc
:1012f8003316240079fc0700200f9800310f98005e
:1013080022bb2e00832224001e00be00a8fc07007a
:1013180062f523003316240070fc0700000f9800c4
:10132800110f9800490037006011b8006e0890004e
:10133800fe08900067fc07000000e000010035008f
:1013480014003700e2fe2200a31b24002e009000a8
:10135800be00900096fc070052582b00c3182400ca
:101368005efc0700200f9800310f9800e2fe220073
:10137800a31b24001e00be008dfc070052582b0042
:10138800c318240055fc0700000f9800110f98009f
:101398002e0037006011b8000e1090009e109000cb
:1013a800e0fc07000000e00001003c0014003700ea
:1013b800e2fe2200a31b24002e009000be00900035
:1013c8007bfc070052582b00c318240043fc07007d
:1013d800200f9800310f980022bb2e008322240092
:1013e8001e00be0072fc070062f5230033162400bd
:1013f8003afc0700000f9800110f980013003700ff
:1014080022bb2e00832224002e009000be009000f4
:1014180067fc070062f52300331624002ffc070041
:10142800200f9800310f9800e2fe2200a31b240031
:101438001e00be005efc070052582b00c318240093
:1014480026fc0700000f9800110f98002e08900046
:10145800be089000b5fc0700cf80de00b0fb070097
:10146800200f9800310f98000e0890009e089000f9
:10147800aefc0700cf80de00a9fb0700000f980034
:10148800110f98006011b8002e089000be08900057
:1014980010fc07000000e0000100350003003700e1
:1014a8006000b800200f9800310f98006011b80054
:1014b8000e0890009e08900006fc07000000e0005f
:1014c80001003500030037006000b800000f9800e5
:1014d800110f980002002000b34624002e08900047
:1014e800be0890008ffc07000000e00001003c00ef
:1014f8000400370000002000b1462400200f9800a7
:10150800310f980002002000b34624000e08900016
:101518009e08900083fc07000000e00001003c00ea
:101528000400370000002000b1462400000f980096
:10153800110f98002e089000be0890009cfc070030
:10154800400f98000e0890009e08900098fc070035
:10155800500f98004e089000de0890002e11900061
:101568000089be002e1090004f04be000080fa00d3
:10157800000006000c00fa00008fbe002207980049
:1015880033079800680047002e029000be029000c2
:101598001e01be00f2fe07004e009000de00900023
:1015a8001040880021408800114080000001eb00b5
:1015b8001000200042fd0700214080000001eb00e0
:1015c800200020003efd07000080fa000000060011
:1015d8000000fa00011c200091407800c0cfb30041
:1015e80000c060000014a000c0e1b700011c20008a
:1015f8009140780030cfb30000c06000c0e1b70070
:1016080030032000400e8800301f2000200e880084
:101618006011b8006000b800d6ff0700c1e1a8005b
:101628000080fa00000006000400fa00c1e1a900e9
:10163800011c200091407800c0cfb30000c06000ba
:101648000014a000c0e1b700c0c1bf00c040b30093
:10165800c0e1b700c0c1bf006f406000c0e1b70083
:1016680000442000400e880040c32000200e88005f
:101678000001eb00511620003000200010fd07008b
:10168800c1e1a8006000b800008fbe000400370068
:1016980010002000010020001e0f40005e97480047
:1016a800f0232400f1002000be0f1000ae8f1800b8
:1016b800f7ff34000001eb0001202000300020007b
:1016c800fffc07006000b800008fbe000400370070
:1016d80010002000010020001e0f40005e97480007
:1016e800f0232400f1002000be0f1000ae8f180078
:1016f800f7ff3400c1e1a900b5ff07000080fa0038
:10170800000006000400fa00c1e1a800004420001f
:10171800400e880040c32000200e88000001eb0026
:101728005116200030002000e5fc0700c1e1a800a8
:101738006000b800008fbe000400370010002000d1
:10174800010020001e0f40005e974800f08f200027
:10175800d1032000be0f1000ae8f1800f7ff340031
:101768000001eb000120200030002000d4fc07001d
:101778006000b800008fbe00040037001000200091
:10178800010020001e0f40005e974800f08f2000e7
:10179800d1032000be0f1000ae8f1800f7ff3400f1
:0817a8000080fa0000000600b9
:020000040000fa
:1017b00072080000080000000200000000000000a5
:1017c000000000000000000000080000720000009f
:0817d000000000000000000011
:00000001FF
